:100000000C94DC000C9404010C9404010C94040185
:100010000C9404010C9404010C9404010C9404014C
:100020000C9404010C9404010C94EC130C945B14D8
:100030000C94D7160C9404010C9404010C94040144
:100040000C9404010C9404010C9404010C9404011C
:100050000C9404010C9404010C9404010C948D166E
:100060000C9404010C9404010C9404010C940401FC
:100070000C9404010C9404010C9404010C940401EC
:100080000C9404010C9404010C9404010C940401DC
:100090000C9404010C9404010C9404010C940401CC
:1000A0000C9404010C9404010C940401000000025F
:1000B00000090F0000030401000C00000000000014
:1000C00000000000000000000000080B0002020217
:1000D00000000904000001020200000524001001D4
:1000E0000524010101042402060524060001070578
:1000F000810310004009040100020A000000070506
:1001000002024000000705830240000004030904C6
:1001100012010002EF0201404F1B04920001010294
:100120000301537061726B46756E00537061726BA0
:1001300046756E2050726F204D6963726F0007061E
:1001400005040100080A0B0C0D0900000000250041
:1001500028002B002E0031000000000024002700A2
:100160002A002D00300004040404040304050202E4
:100170000202040302020202060606060606040440
:1001800002020204040408020110408040102040D2
:10019000804080080204018040201002011080107D
:1001A000204040207C3C3E5E2B3D3F2F5B5D3B2C46
:1001B0002A225C00EE16901B11241FBECFEFDAE05E
:1001C000DEBFCDBF24E0A2E8B1E001C01D92AD3595
:1001D000B207E1F711E0A0E0B1E0E6E2FFE302C020
:1001E00005900D92A238B107D9F710E0CBEDD0E021
:1001F00004C02197FE010E94621DCA3DD107C9F7C4
:100200000E94C2170C94861F0C94000090E0FC0121
:10021000EB57FE4F24918A599E4FFC01849188230D
:1002200099F090E0880F991FFC01E85AFE4FA591C4
:10023000B491FC01E65BFE4F859194918FB7F894E1
:10024000EC91E22BEC938FBF0895FC018091A90102
:10025000882311F13FB7F89482E08093E900209160
:10026000F200822F90E01816190614F481E090E055
:10027000882339F0289844E64093A6014091F10084
:100280004083222339F02091F200211103C02BE694
:100290002093E8003FBF08958FEF9FEF08952FB799
:1002A000F89483E08093E9009091E800892F8072B0
:1002B00095FF04C09091F20080E4891B2FBF089540
:1002C00080919E0181110DC082E080939A0184E0AB
:1002D00080939B0110929D0110929C0181E080937C
:1002E0009E018AE991E00895409193015091940113
:1002F000209191013091920142175307B4F49091EB
:10030000E8009570E1F39091E80092FD19C08093A8
:10031000F100809193019091940101968F73992738
:10032000892B19F48EEF8093E800809193019091CE
:1003300094010196909394018093930181E0089534
:1003400080E00895EF92FF920F931F93CF93DF9376
:10035000F82E192FE62E042F81E0860F880F0E94B9
:10036000740183E00E947401CF2DD12FEC0EFD2E7D
:10037000F11CCE15DF05B9F007FF13C0FE01849113
:100380000E947401182F80E00E947401812321963D
:100390008111EFCFDF91CF911F910F91FF90EF90DF
:1003A00008958881EDCF81E0F5CFDF92EF92FF9243
:1003B0000F931F93CF93DF93D82E8A01EB017B011C
:1003C000E40EF51ECE15DF0559F0D7FE12C0FE0172
:1003D00084910E94740121968111F4CF0FEF1FEFD9
:1003E000C801DF91CF911F910F91FF90EF90DF90A7
:1003F00008958881EECF0F931F93CF93DF931F92C1
:10040000CDB7DEB782E0898342E450E06AEC70E069
:1004100080E80E94D5010E946001DC0112960D91D6
:100420001C910115110589F0D801ED91FC91028014
:10043000F381E02DBE016F5F7F4FC801099597FDE5
:1004400004C0F80100851185ECCF89810F90DF9100
:10045000CF911F910F910895615030F02091F100DC
:10046000FC0120830196F8CF289884E68093A601AA
:100470000895AF92BF92CF92DF92EF92FF920F93C7
:100480001F93CF93DF936C017B018B01040F151F2A
:10049000EB015E01AE18BF08C017D10759F0699192
:1004A000D601ED91FC910190F081E02DC6010995F6
:1004B000892B79F7C501DF91CF911F910F91FF90A3
:1004C000EF90DF90CF90BF90AF900895CF93DF93E0
:1004D0001F92CDB7DEB76983DC01ED91FC910280FC
:1004E000F381E02D41E050E0BE016F5F7F4F099541
:1004F0000F90DF91CF91089583E08093E900809180
:10050000F200882319F08AE38093E80008950E949E
:100510004F0190E00895CF93DF931F92CDB7DEB7E0
:10052000FC018485958597FD08C02FEF3FEF358747
:1005300024870F90DF91CF910895CE0101960E94FC
:100540002501019719F4898190E0F3CF8FEF9FEF98
:10055000F0CF0F931F93CF93DF931F92CDB7DEB7EA
:100560008C01FC018485958597FF0BC0CE01019617
:100570000E942501019771F4898190E0F801958727
:100580008487F801848595850F90DF91CF911F9125
:100590000F9108958FEF9FEFF1CFFC018485958532
:1005A00097FD0BC09FB7F89482E08093E90080919B
:1005B000F2009FBF90E0019608959FB7F89482E003
:1005C0008093E9008091F2009FBF90E00895282F6A
:1005D00030E0F901E455FF4F9491F901EB57FE4FDC
:1005E00084912A593E4FF9012491222309F430C005
:1005F0009923E9F091509F30D0F4E92FF0E0ED5FBE
:10060000FC4F0C94621D31033503120329032D03A3
:1006100017031703170338033E03420346034C0333
:1006200017035003909180009F7790938000E22FF2
:10063000F0E0EE0FFF1FE65BFE4FA591B4919FB770
:10064000F894EC91611132C080958E238C939FBFFA
:100650000895909180009F7DE8CF90918000977FD2
:10066000E4CF94B59F7794BDE2CF94B59F7DFBCF47
:10067000909190009F7790939000D9CF90919000A7
:100680009F7DF9CF90919000977FF5CF9091C0001A
:100690009F779093C000CBCF9091C0009F7DF9CF02
:1006A0009091C200977F9093C200C1CF8E2BCECF86
:1006B0003FB7F89480918D0190918E01A0918F01A8
:1006C000B091900126B5A89B05C02F3F19F0019667
:1006D000A11DB11D3FBFBA2FA92F982F8827BC019C
:1006E000CD01620F711D811D911D43E0660F771FC3
:1006F000881F991F4A95D1F708958F929F92AF92C4
:10070000BF92CF92DF92EF92FF924B015C010E9469
:1007100058036B017C010E9458036C197D098E09F6
:100720009F09683E734081059105A8F321E0821A74
:100730009108A108B10888EEC80E83E0D81EE11C1C
:10074000F11C81149104A104B10429F7FF90EF90EA
:10075000DF90CF90BF90AF909F908F9008951092B0
:10076000A9011092A8011092A7018091D700816081
:100770008093D70080EA8093D80089B58F7E89BDA9
:1007800089B5826089BD09B400FEFDCF61E070E0EB
:1007900080E090E00E947D038091D8008F7C806192
:1007A0008093D8008091E000807F8093E00080916A
:1007B000E1008E7E8093E1008DE08093E200559A07
:1007C000209A08958F929F92AF92BF92CF92DF921C
:1007D000EF92FF920F931F93CF93DF936C017B01F6
:1007E0008A0180910B01882309F45CC08091A901E2
:1007F000882309F457C08091A70180FF05C080912C
:10080000E00082608093E000E801B12C8AEFA82E1E
:1008100093E0892E2AE3922E209711F4BB20D9F180
:100820000E944F0181110AC0AA94AA20D9F161E067
:1008300070E080E090E00E947D03EECF8C171D06F3
:1008400011F00CF08C2F9FB7F8948092E900209162
:10085000E80025FD02C09FBFDFCF282F30E0C21B7C
:10086000D30BF701815020F041914093F100FACF72
:10087000E20EF31EBB2021F09092E800B12CEBCFEA
:100880008091E80085FDE7CF9092E800BB24B39407
:10089000209709F3F3CF5D9884E6809396011016B4
:1008A00011063CF081E090E0F6019383828310E032
:1008B00000E0C801DF91CF911F910F91FF90EF9061
:1008C000DF90CF90BF90AF909F908F9008952FB7FB
:1008D000F8946091890170918A0180918B019091C7
:1008E0008C012FBF0895FC01DB0112968D919C9124
:1008F00013979383828385E491E091838083149698
:100900008C911497848315968C91159785831696F0
:100910004D915D916D917C911997468357836087C6
:1009200071871A964D915D916D917C911D974287CB
:100930005387648775871E964D915D916D917C916B
:10094000519746875787608B718B52968C9152973F
:10095000828B53964D915D916D917C915697438B0F
:10096000548B658B768B57964D915D916D917C91F3
:100970005A97478B508F618F728F5B968D919C91A8
:10098000948F838F0895DC015996ED91FC913097F7
:10099000B9F083899489A589B68942855385648590
:1009A0007585841B950BA60BB70B811520E8920764
:1009B000A105B10538F08FEF9FE7A0E0B0E0089502
:1009C00090E080E00895DC0159968D919C9100970C
:1009D00039F0DC01ED91FC910480F581E02D099462
:1009E00090E080E00895CF93DF931F92CDB7DEB7FC
:1009F0006983DC01ED91FC910280F381E02D41E0FF
:100A000050E0BE016F5F7F4F09950F90DF91CF914E
:100A10000895089561E0FC0184810E94E7028091BD
:100A2000830181111092830108958EBD00000DB4E1
:100A300007FEFDCF8EB508958FEF0C9415050F932B
:100A40001F93CF93DF93EC010E9467048B010E94F8
:100A50001C058F3F69F00E946704601B710B6C17C7
:100A60007D07A8F380E0DF91CF911F910F9108954A
:100A700081E0F9CF8CBD9DBD08951F93CF93DF9387
:100A800080914804909149040E943A05C0E5D4E061
:100A900060E088810E94E70282E00E94150580E004
:100AA0000E941505182F61E088810E94E702812FBE
:100AB000DF91CF911F910895CF93DF93EC01809147
:100AC0008301811109C081E0809383018091FD033E
:100AD0009091FE030E943A0560E08C81DF91CF91F6
:100AE0000C94E7028F929F92AF92BF92FF920F9366
:100AF0001F93CF93DF93EC01F62E49015A018E81AB
:100B0000882389F08F8198859C012F5F3F4F38871C
:100B10002F838230924018F40E941C05F3CFCE013F
:100B20000E940A051E82CE010E945C058CE291E0C3
:100B30000E941F058F2D80640E94150508E110E0BA
:100B4000D501C401002E04C0B695A7959795879549
:100B50000A94D2F70E94150508501109083F8FEF3B
:100B6000180771F785E9FF2021F028E087E8F212E5
:100B70008FEF0E94150510E00E941C058A8787FFF1
:100B800004C01F3F11F01F5FF7CFDF91CF911F917E
:100B90000F91FF90BF90AF909F908F900895AF926C
:100BA000BF92CF92DF92EF92FF920F931F93CF935A
:100BB000DF93EC016901C801820F931F81309240DD
:100BC00050F58E81882379F088819981AA81BB8133
:100BD00084179507A607B70731F48F819885C81643
:100BE000D90608F042C0488359836A837B838B858A
:100BF000833039F089E0440F551F661F771F8A95AF
:100C0000D1F79A01AB0161E1CE010E947205882300
:100C100089F083E08D83CE010E940A0580E0DF9198
:100C2000CF911F910F91FF90EF90DF90CF90BF90E9
:100C3000AF9008950E9467045B010E941C058A879B
:100C40008F3F69F40E9467046A197B096D32714015
:100C5000A0F38FE08D83CE010E940A05DCCF8E3F8A
:100C600089F418861F8281E08E838F8198858C1588
:100C70009D0550F40E941C058F81988501969887E8
:100C80008F83F3CF8DE0E6CF6701E00EF11E0E9467
:100C90001C05F60181936F01EE15FF05C1F78F81E9
:100CA0009885080F191F18870F838985882319F0E5
:100CB00001151240A0F08E81882389F08F819885DC
:100CC0009C012F5F3F4F38872F838230924018F46A
:100CD0000E941C05F3CFCE010E940A051E8281E00E
:100CE0009ECFCF92DF92EF92FF920F93CF93DF933D
:100CF000EC01690182E1411551056105710599F029
:100D00008B85833039F089E0440F551F661F771FAC
:100D10008A95D1F79A01AB0168E1CE010E94720574
:100D2000882319F084E08D832DC08EEF0E94150575
:100D300076018EEFD81AF70181917F010E94150587
:100D4000EC14FD04C1F78FEF0E9415058FEF0E9490
:100D500015050E941C058A878F71853071F4011179
:100D600016C0CE010E940A0581E0DF91CF910F915C
:100D7000FF90EF90DF90CF90089581E18D83CE01B9
:100D80000E940A05CE010E940A0580E0EECF88E5A8
:100D900092E00E941F05811102C085E1C4CF20E0CE
:100DA00030E0A9016DE0CE010E947205882311F0A8
:100DB00084E1B9CF0E941C058111FACFD2CF0F93E5
:100DC0004091840150918501609186017091870165
:100DD000411551056105710599F0082F2DEA31E0A3
:100DE0008091AA019091AB010E947106882349F07D
:100DF0001092840110928501109286011092870151
:100E000081E00F9108950F93CF93C82F8091AC018B
:100E1000811105C0C1E08C2FCF910F9108954091B1
:100E20000C0150910D0160910E0170910F010C2F7A
:100E30002DEA31E08091AA019091AB010E947106E8
:100E4000811102C0C0E0E7CFCC2321F381E00E94F2
:100E5000DF068823B9F31092AC01DDCF8F929F9209
:100E6000AF92BF92EF92FF920F931F93CF934B01DC
:100E70005C01C42F80910C0190910D01A0910E0195
:100E8000B0910F0188159905AA05BB0551F181E0C4
:100E90000E94030781110BC080E0CF911F910F9139
:100EA000FF90EF90BF90AF909F908F9008958DEA44
:100EB000E82E81E0F82E00E012E030E020E0B501FD
:100EC000A4018091AA019091AB010E94CF058823D3
:100ED00019F380920C0190920D01A0920E01B09234
:100EE0000F014091AC014C2B4093AC0181E0D5CF78
:100EF0008F929F92AF92BF92CF92DF92EF92FF922A
:100F0000CF932FEF33E03093AB012093AA018823D6
:100F100009F46DC040E060E070E0CB010E942E0754
:100F200081110BC080E0CF91FF90EF90DF90CF90C8
:100F3000BF90AF909F908F90089580916B038F77B3
:100F400089F78091770390917803A0917903B0910C
:100F50007A0384369105A105B10520F3C09073038F
:100F6000D0907403E0907503F0907603C114D1041F
:100F7000E104F104B9F240E0C701B6010E942E0776
:100F8000882381F28091B8019091B9018115924036
:100F900049F6A091BD01AA2329F26091BB0170918D
:100FA000BC016115710509F4BDCF2091BA0122235E
:100FB00009F4B8CFA0931D0420930F0490E080E0C3
:100FC00030E0E1E0F0E0C82FAF01082E02C0440F8E
:100FD000551F0A94E2F72417350769F041E0480FDE
:100FE00001968930910579F7409318049BCFC12C65
:100FF000D12C7601C0CF809318042091C301309189
:10100000C40150E040E02115310541F42091D101A7
:101010003091D2014091D3015091D401209310041A
:101020003093110440931204509313044601570166
:10103000860E971EA11CB11C80921E0490921F0464
:10104000A0922004B0922104E091BE01F091BF0172
:10105000F0932404E0932304B0E00E94B91CDC0167
:10106000CB01880D991DAA1DBB1D8093250490936B
:101070002604A0932704B093280425E0EE0FFF1F59
:101080002A95E1F7E150FE4FEF2FFF27E6958E0FEF
:101090009F1FA11DB11D8093190490931A04A09362
:1010A0001B04B0931C048090C0019090C101B12C2E
:1010B000A12C8114910441F48090CD019090CE0137
:1010C000A090CF01B090D001C81AD90AEA0AFB0A51
:1010D000C80CD91CEA1CFB1C04C0F694E794D794F6
:1010E000C794CA95D2F7C0921404D0921504E09226
:1010F0001604F092170485EFC8168FE0D806E104B5
:10110000F10428F48CE08093220481E00CCF80E18C
:1011100025EFC2162FEFD206E104F104A0F380916F
:10112000D9019091DA01A091DB01B091DC018093AB
:10113000250490932604A0932704B093280480E20A
:10114000E2CF4F925F926F927F928F929F92AF9277
:10115000BF92CF92DF92EF92FF920F931F93CF93A4
:10116000DF93EC01423051056105710590F480E098
:10117000DF91CF911F910F91FF90EF90DF90CF9073
:10118000BF90AF909F908F907F906F905F904F90A7
:10119000089589859A85AB85BC850196A11DB11DF1
:1011A00084179507A607B70710F3CB88DC88ED886E
:1011B000FE888F89803109F042C0BB27A72F962F68
:1011C000852F480159012A013B01C80ED91EEA1E8C
:1011D000FB1E80910C0190910D01A0910E01B09128
:1011E0000F01C816D906EA06FB0699F58F898031EA
:1011F000C1F5B301A201552766277727440F551F74
:1012000043555E4FFA01918280828091AC018160EA
:101210008093AC018A89823080F08D819E81AF817C
:10122000B8858C0D9D1DAE1DBF1D809384019093CC
:101230008501A0938601B093870181E099CFDB01FE
:10124000CA01E7E0B695A79597958795EA95D1F7F6
:10125000B8CF40E0C701B6010E942E078111C6CF6A
:1012600086CFB301A2014F77552766277727440F12
:10127000551F440F551F43555E4FFA0180829182DE
:10128000A282B382C2CF8F929F92AF92BF92CF922F
:10129000DF92EF92FF920F931F93CF93DF93FC01A6
:1012A00081859285A385B4850196A11DB11D841702
:1012B0009507A607B70770F480E0DF91CF911F91E3
:1012C0000F91FF90EF90DF90CF90BF90AF909F90E5
:1012D0008F90089583889488A588B68887898031FF
:1012E00089F5BB27A72F962F852FE9016A017B017E
:1012F0008F01BC01CD01680D791D8A1D9B1D809059
:101300000C0190900D01A0900E01B0900F01861677
:101310009706A806B90601F5F8018789803111F50D
:10132000DD24EE24FF24F601EE0FFF1FE355FE4FF0
:1013300080819181B0E0A0E088839983AA83BB83F8
:1013400081E0BBCFDB01CA01C7E0B695A7959795B1
:101350008795CA95D1F7C9CF40E00E942E07811129
:10136000DBCFAACFE894C7F8DD24EE24FF24F601F2
:10137000EE0FFF1FEE0FFF1FE355FE4F808191819F
:10138000A281B381BF70D8CF4F925F926F927F924C
:10139000AF92BF92CF92DF92EF92FF920F931F9383
:1013A000CF93DF9300D000D0CDB7DEB78C01498357
:1013B0005A836B837C835901C12CD12C7601412C3B
:1013C00082E0582E612C712C49815A816B817C817D
:1013D0009E012F5F3F4FC8010E944309882339F1C6
:1013E000F8018585A301920104C0220F331F441F19
:1013F000551F8A95D2F7DA01C901C80ED91EEA1E17
:10140000FB1E49815A816B817C818789803111F172
:1014100088EF9FEFAFEFBFE0481759076A077B07D8
:1014200098F2F501C082D182E282F38281E00F90CE
:101430000F900F900F90DF91CF911F910F91FF9020
:10144000EF90DF90CF90BF90AF907F906F905F90C4
:101450004F90089588EF9FEFA0E0B0E0DDCFCF93ED
:10146000DF93FC012581222321F080E0DF91CF91E1
:101470000895EC0180912204803159F582E0858342
:10148000178A108E118E128E80912304909124045D
:10149000B0E0A0E025E0880F991FAA1FBB1F2A9586
:1014A000D1F7838B948BA58BB68B8BE094E09C8FCC
:1014B0008B8F81E08C831E821F82188619861A8684
:1014C0001B861C861D861E861F86188A198A1A8A04
:1014D000CDCF803251F683E0858340912504509131
:1014E00026046091270470912804478B508F618FE8
:1014F000728F9F012D5E3F4F8BE094E00E94C409E4
:101500008111D3CFB2CF8F929F92AF92BF92CF92E1
:10151000DF92EF92FF920F931F93CF93DF93EC0133
:101520008D8181110EC080E0DF91CF911F910F91CD
:10153000FF90EF90DF90CF90BF90AF909F908F90F3
:1015400008950B891C892D893E89041715072607E4
:10155000370748F34A015B01823031F48A869B8663
:10156000AC86BD8681E0E0CF81149104A104B10472
:1015700049F41E821F82188619861A861B861C86CD
:101580001D86F0CF0A851B852C853D85EB8DFC8D56
:10159000858590E00996B901A8014150510961097A
:1015A0007109082E04C076956795579547950A945A
:1015B000D2F775016401E1E0CE1AD108E108F10823
:1015C00004C0F694E794D794C7948A95D2F7C416CA
:1015D000D506E606F70620F0012B022B032B11F5AA
:1015E0008F89988DA98DBA8D8E839F83A887B9879F
:1015F0008E010A5F1F4FC114D104E104F10409F404
:10160000ADCF4E815F816885798598018B8D9C8DEA
:101610000E94430991E0C91AD108E108F10881113B
:10162000EACF81CFC41AD50AE60AF70AE1CF3F9282
:101630004F925F926F927F928F929F92AF92BF92E2
:10164000CF92DF92EF92FF920F931F93CF93DF938E
:10165000CDB7DEB72C970FB6F894DEBF0FBECDBF67
:101660005C01DC015B968D909C905C9716964D908A
:101670005D906D907C901997411451046104710440
:1016800009F468C0BFEF4B1A5B0A6B0A7B0A312C66
:10169000F40181859285A385B4859C01AD012F5FFE
:1016A0003F4F4F4F5F4F29873A874B875C877301C6
:1016B00062011D821E821F821886F4018185928537
:1016C000A385B4852D813E814F8158852817390720
:1016D0004A075B0708F056C089859A85AB85BC85AB
:1016E0008C159D05AE05BF0550F482E0C82ED12CA7
:1016F000E12CF12C92E0492E512C612C712C9E0191
:101700002F5F3F4FB701A601C4010E944309882300
:10171000C9F189819A81AB81BC81892B8A2B8B2B62
:1017200009F1260137019FEF491A590A690A790A16
:101730002D813E814F8158852F5F3F4F4F4F5F4F27
:101740002D833E834F8358873FEFC31AD30AE30AA2
:10175000F30AB3CFF4014080518062807380332458
:10176000339496CFC414D504E604F70409F70FEFB9
:101770001FEF2FEF3FE0B701A601C4010E94A108AF
:10178000811119C080E02C960FB6F894DEBF0FBE11
:10179000CDBFDF91CF911F910F91FF90EF90DF9020
:1017A000CF90BF90AF909F908F907F906F905F9001
:1017B0004F903F900895D50116964D915D916D9192
:1017C0007C911997411551056105710539F0970113
:1017D0008601C4010E94A1088823A1F2D5011696B2
:1017E000CD92DD92ED92FC921997332051F0D70102
:1017F000C6010196A11DB11DF40180839183A283CE
:10180000B383F5018789908DA18DB28D892B8A2BA9
:101810008B2B39F48481C78AD08EE18EF28E80685A
:101820008483F50184818062848381E0ACCF2F9230
:101830003F924F925F926F927F928F929F92AF9260
:10184000BF92CF92DF92EF92FF920F931F93CF93AD
:10185000DF9300D01F92CDB7DEB7FC0185818111E7
:1018600018C08FEF9FEF0F900F900F90DF91CF91E7
:101870001F910F91FF90EF90DF90CF90BF90AF90AE
:101880009F908F907F906F905F904F903F902F90A0
:101890000895848180FFE5CF4389548965897689DD
:1018A00082859385A485B585312C212C481759074D
:1018B0006A077B0719F022242394312C6F01210140
:1018C000CE0101963C01DF011696BB83AA83411429
:1018D000510409F4C5C0F6014285538564857585B8
:1018E0004A01F1E09F22D6015B968D919C915C9715
:1018F0008A019B01E9E03695279517950795EA95AA
:10190000D1F71596EC91E230E9F5FC01628D738D0B
:10191000848D958D600F711F821F931FA12C22E073
:10192000B22EA818B9084A145B0408F45201F60153
:10193000248126FD04C0A114F2E0BF0671F40091D9
:101940000C0110910D0120910E0130910F0106172D
:1019500017072807390709F05EC040E00E942E07EC
:10196000882309F47ECFC40183559E4FD3019C0187
:101970002A0D3B1DFC012E173F0709F46CC0419155
:101980004D93F9CFDC011496BC90BA94B022811427
:10199000910479F4B1100DC0452B462B472B69F506
:1019A000F6018789908DA18DB28D86839783A0875C
:1019B000B187D6015B96ED91FC915C9716966D917F
:1019C0007D918D919C9119976250710981099109BE
:1019D000258504C0660F771F881F991F2A95D2F7A7
:1019E0000685178520893189600F711F821F931F1B
:1019F0006B0D711D811D911D91CFD60116964D91D4
:101A00005D916D917C9119972A813B810E944309D8
:101A10008111CFCF26CF730185019401AB01BC01A9
:101A20008091AA019091AB010E94CF05882309F40F
:101A300018CF6A0C7B1CF60182859385A485B58539
:101A40008A0D9B1DA11DB11D82879387A487B58731
:101A50004A185B083CCF281B390B620E731EEBCF74
:101A60002A94232809F0FDCE898190E0FCCEFC0168
:101A7000818D928D009711F00C94170C8FEF9FEFD2
:101A800008950F931F93CF93DF93EC01898D9A8D67
:101A900010E000E0009799F00E94170C8C010F3FB6
:101AA000100769F0898D9A8DFC0142855385648504
:101AB000758541505109610971090E94830AC80165
:101AC000DF91CF911F910F9108951F93CF93DF93D3
:101AD000FC0125812223D1F1162FEC01848187FF9F
:101AE0002AC0668577858089918941E00E942E070A
:101AF000882361F1EA8980E2E89FF0011124E3552F
:101B0000FE4F309719F18D81823040F48B899C898A
:101B1000AD89BE89848F958FA68FB78F8F89988D59
:101B2000938F828F8F89988DA98DBA8DB58BA48B59
:101B30008C818F778C83111103C08C818F7E8C8375
:101B4000812FDF91CF911F910C94030780E0DF91EB
:101B5000CF911F910895FF920F931F93CF93DF931F
:101B6000EC018D81813041F090E080E0DF91CF91F8
:101B70001F910F91FF9008958C8181FFF5CF82FD19
:101B80001BC00091AA011091AB01C8010E945C0525
:101B90000E941C05F82EC8010E940A058FEFF8125A
:101BA000E3CF8C8185FF1BC060E0CE010E94650DF4
:101BB0008C818F7D8C83D8CF4B895C896D897E89A0
:101BC0008A859B85AC85BD8584179507A607B707D1
:101BD000C1F2CE010E94830A8111D3CFC5CF4091BB
:101BE0008401509185016091860170918701452B98
:101BF000462B472B21F080E00E94DF06B5CF8061A5
:101C00008C832A853B85317080E092E0821B930BA8
:101C1000ADCFCF93DF93EC0161E00E94650D882387
:101C200011F01D8281E0DF91CF910895FC01818D3B
:101C3000928D009719F061E00C94650D08952F9234
:101C40003F924F925F926F927F928F929F92AF924C
:101C5000BF92CF92DF92EF92FF920F931F93CF9399
:101C6000DF9300D000D01F92CDB7DEB77C015B01BF
:101C7000342E5D83DC0115968C911597813009F027
:101C8000CEC014962C9021FECAC022FCB4C0C32C36
:101C9000DD8022947FE027222094B22DB1702B2E7C
:101CA000D7011A964D915D916D917C911D97C1144C
:101CB000D10409F428C15B968D919C915C97FC013D
:101CC00074807A948A019B0169E03695279517956F
:101CD00007956A95D1F770228A011170711020C0A2
:101CE00001151105E9F416964D915D916D917C9168
:101CF0001997411551056105710509F099C057966D
:101D00008D919D910D90BC91A02D0097A105B105DD
:101D100009F0B0C0C7010E94170B882309F47FC0E7
:101D200080E092E0801B910B46018C159D0508F424
:101D30004C01D7015B964D915C915C9716968D9105
:101D40009D910D90BC91A02D0297A109B109FA01B6
:101D5000258504C0880F991FAA1FBB1F2A95D2F79B
:101D60004685578560897189840F951FA61FB71F07
:101D70009C01AD01270D311D411D511D29013A0165
:101D8000811432E0930609F07BC080910C019091A0
:101D90000D01A0910E01B0910F0184159505A605C6
:101DA000B70559F48FEF9FEFDC0180930C019093FE
:101DB0000D01A0930E01B0930F01022D9501B30107
:101DC000A2018091AA019091AB010E947106882323
:101DD00031F19EEFB91AC818D908F70182859385A9
:101DE000A485B585880D991DA11DB11D8287938796
:101DF000A487B58755CFF7014389548965897689CA
:101E000082859385A485B585481759076A077B079E
:101E100009F43DCFC7010E94830A811138CF81E0C8
:101E200090E0D70113969C938E93129780E007C0A1
:101E30009E012F5F3F4F0E944309811102C090E035
:101E400079C089819A81AB81BC81F701238D348D62
:101E5000F901278948EF5FEF60E070E0203121F061
:101E600048EF5FEF6FEF7FE084179507A607B7078E
:101E700008F050CFF70186839783A087B18750CFB2
:101E80000115110599F5D7011A964D915D916D9146
:101E90007C911D9753968D919D910D90BC91A02D95
:101EA000481759076A077B0708F181E00E9403077A
:101EB000882309F4B4CF40920C0150920D01609236
:101EC0000E0170920F018091AC0181608093AC0192
:101ED000C80183559E4FD5019C01280D391DFC0179
:101EE0002E173F0759F04D914193FACF41E0C301BE
:101EF000B2010E942E078111EBCF91CF281B390B25
:101F0000A20EB31E68CFF70183899489A589B6898B
:101F100084179507A607B70738F48481438B548B41
:101F2000658B768B80688483F701848183FD1AC07A
:101F3000832D9D810F900F900F900F900F90DF9148
:101F4000CF911F910F91FF90EF90DF90CF90BF90B6
:101F5000AF909F908F907F906F905F904F903F9049
:101F60002F90089561E0C7010E94650D882309F450
:101F700056CFDECFCF93DF931F92CDB7DEB7698305
:101F800041E050E0BE016F5F7F4F0E941F0E0F9037
:101F9000DF91CF910895CF93DF93EC01E98DFA8D16
:101FA000309749F481E090E09B838A8390E080E061
:101FB000DF91CF91089513821282898D9A8D0E94AC
:101FC0001F0EE98DFA8D22813381232B59F7F0CF33
:101FD000FB0144815581608171810C94CB0FCF93BB
:101FE000CFB7F89480918201811124C0E7E7F1E036
:101FF0008491E6E9F1E09491E82FF0E0EE0FFF1F05
:10200000E85AFE4FA591B491EC91E92321F461E0E7
:1020100081E10E94E70281E10E9406018CB58061A6
:102020008CBD8CB580648CBD8FE00E94060180E180
:102030000E940601809182018F5F80938201CFBF51
:10204000CF9108954115510529F4EAE7F0E0808128
:102050008F7780836A307105B9F0CB01880F991FA3
:10206000880F991F807267706860682B88E10FB6CF
:10207000F894A895809360000FBE60936000E0E63E
:10208000F0E0808180648083232BB1F483B7817F6B
:10209000846083BFF89483B7816083BF7894889508
:1020A00083B78E7F83BF7894452B29F4EAE7F0E06D
:1020B000808180688083089583B7817F846083BF37
:1020C000F89483B7816083BF7894889583B78E7FB7
:1020D00083BF7894E9CF089590E080E008950F934E
:1020E0001F93CF93DF93EC0180E2689FF0011124EE
:1020F000E355FE4F6A8B80910C0190910D01A091E8
:102100000E01B0910F018E879F87A88BB98B048930
:10211000158930E020E09801112700270F8B188FD8
:10212000298F3A8F828D938DB0E0A0E0AC01BD0184
:10213000402B512B622B732B4F8B588F698F7A8FCB
:1021400083858871A9F4848D958DA68DB78D8B8B31
:102150009C8BAD8BBE8B81E08D8381E08C831E8256
:102160001F82188619861A861B861C861D8603C048
:10217000803131F080E0DF91CF911F910F91089570
:102180009E012D5E3F4F8B8D9C8D0E94C40988233C
:1021900089F384E0E1CFFB0101900020E9F731975A
:1021A000AF01461B570B0C94CB0FAF92BF92CF924F
:1021B000DF92EF92FF920F931F93CF93DF93CDB7F0
:1021C000DEB72B970FB6F894DEBF0FBECDBF6C0104
:1021D000FE013196CE010C967F0120E22193E81793
:1021E000F907E1F7DA0120E037E09D91B92E992354
:1021F000A9F19E32B9F43A3091F480E02B960FB6F3
:10220000F894DEBF0FBECDBFDF91CF911F910F912C
:10221000FF90EF90DF90CF90BF90AF90089528E0AF
:102220003AE0E3CFE4EAF1E08491882321F03196AB
:102230009813FACFE2CF321700F38FED890F8E3566
:10224000E0F68FE9890F8A3118F440EEB42EB90E0A
:10225000F701E20FF11DB0822F5FC7CF8981803275
:1022600061F28B01FB01838D948DF601948F838F36
:10227000FB01168217821086118612861386148639
:102280001586F80182859385A485B585438954898F
:102290006589768984179507A607B70708F0ADCF3B
:1022A00025E0B695A795979587952A95D1F7F82FAC
:1022B000FF70AF2EF8018581823008F49ECFC801EF
:1022C0000E94170C97FD99CFF80182859385A4850C
:1022D000B5854F96A11DB11D82879387A487B587C9
:1022E000F0E2AF9EB001112463557E4F6115710578
:1022F00009F483CFFB018081882309F1853E19F41D
:10230000B11032C01EC04BE050E0C7010E944F1F09
:10231000892B09F0B6CF6A2DC6012B960FB6F8941B
:10232000DEBF0FBECDBFDF91CF911F910F91FF9008
:10233000EF90DF90CF90BF90AF900C946F10B110E2
:102340005CCFF601A28A80910C0190910D01A091C1
:102350000E01B0910F0186879787A08BB18BFB018F
:102360008081882309F449CFBB24B3948ACFCF93CB
:10237000DF93EC0188819981009711F00E94041E7F
:10238000198218821D821C821B821A82DF91CF91D2
:102390000895FC0180819181009711F00C94041E36
:1023A00008950E944A1F0F931F93CF93DF93EC0170
:1023B00088819981009759F02A813B812617370738
:1023C00030F081E0DF91CF911F910F9108958B0143
:1023D0006F5F7F4F0E948D1E009759F0998388830D
:1023E0001B830A832C813D81232B59F7FC0110822A
:1023F000E8CF80E0E7CFEF92FF920F931F93CF9348
:10240000DF936115710541F480E0DF91CF911F9159
:102410000F91FF90EF90089541155105B1F07B01A8
:10242000EC010C811D81040F151FB8010E94D3110E
:10243000882351F3288139818C819D81B701820FD6
:10244000931F0E94701F1D830C8381E0DECFCF930A
:10245000DF93EC01FB0101900020E9F73197AF0118
:10246000461B570B0E94FB11811103C0CE010E9435
:10247000B711CE01DF91CF910895CF93DF93EC0197
:10248000FB0144815581608171810E94FB118111A2
:1024900003C0CE010E94B711CE01DF91CF91089504
:1024A000EF92FF920F931F93CF93DF93EC017B0189
:1024B0008A01BA010E94D31181110BC0CE010E9482
:1024C000B711CE01DF91CF911F910F91FF90EF9047
:1024D00008951D830C83B701888199810E94701F24
:1024E000F0CFEF92FF920F931F93CF93DF93CDB76F
:1024F000DEB729970FB6F894DEBF0FBECDBF8C01B3
:10250000862FF801118210821382128215821482A2
:102510004AE09E012F5F3F4F7901B90190E00E9490
:10252000941BF70101900020E9F73197AF014E1994
:102530005F09B701C8010E94501229960FB6F8949E
:10254000DEBF0FBECDBFDF91CF911F910F91FF90E6
:10255000EF900895FB01DC0111961C921E921396D8
:102560001C921E92129715961C921E921497861713
:10257000970749F0608171816115710521F04481EF
:1025800055810C9450120895EF92FF920F931F9370
:10259000CF93DF93EC017B018A011B821A8288EEC4
:1025A00093E0A0E0B0E08C839D83AE83BF8381E2A3
:1025B00091E0998388838DE190E00E94681D9A8F55
:1025C000898F009779F02DE1F701DC0101900D92E0
:1025D0002A95E1F74CE050E0B801CE010C960E943C
:1025E000771F188EDF91CF911F910F91FF90EF9081
:1025F00008952F923F924F925F926F927F928F92A7
:102600009F92AF92BF92CF92DF92EF92FF920F9381
:102610001F93CF93DF93CDB7DEB7C656D1090FB660
:10262000F894DEBF0FBECDBF6C015B0119A218A2EA
:1026300085E491E09F8F8E8F1BA21C821B829A8360
:1026400089831E824E018EE1880E911CC4010E9476
:102650002F0A75018E010F5F1F4F240118016FE2D1
:1026600070E0C7010E94651F009709F45CC0F70184
:1026700020812F3271F4FFEFEF1AFF0A902F812F84
:102680008201492E582E942D852D2801092F182FAF
:10269000E6CF8E198D3008F08CE0682E712CA301E6
:1026A000B701CE01885A9F4F0E94771FE8E5F0E0FE
:1026B000EC0FFD1FE60DF71D1082C8010E94090EE8
:1026C000F8018581882301F11EAE1DAE85E491E0FD
:1026D0009CAF8BAF21961FAE2197A796EEADFFADB5
:1026E000A797AE0EBF1EF5018081811129C0BE01E2
:1026F000655C7F4FC1010E9473044DE451E0B1015C
:10270000C6010E94C4123AC0AE01485A5F4FB201DE
:10271000C8010E94D5108823B9F2E60CF71CC2014B
:102720000E94090EB0CFC7018A199B09A7969FAFD7
:102730008EAFA797B201CE01CB960E947304CDCF86
:1027400019A218A285E491E09F8F8E8F1BA221967B
:102750008FAD219781112DC0F6011382128288EE70
:1027600093E0A0E0B0E084839583A683B78381E201
:1027700091E091838083128E118E1486C601CA590E
:10278000DF4F0FB6F894DEBF0FBECDBFDF91CF9104
:102790001F910F91FF90EF90DF90CF90BF90AF907F
:1027A0009F908F907F906F905F904F903F902F9071
:1027B0000895A501BE01655C7F4FC4010E94D5103C
:1027C000882351F2CE01CB960E94090EB401C101BB
:1027D0000E947304A50193CF1F920F920FB60F9220
:1027E00011248F939F938091E1009091E100937F5A
:1027F0009093E10083FF0FC01092E90091E0909365
:10280000EB001092EC0092E39093ED001092A9017E
:1028100098E09093F00082FF22C093E09093E9004B
:102820009091F200992319F09AE39093E800909127
:102830009601992341F090919601915090939601C1
:10284000911101C05D9A9091A601992341F0909158
:10285000A60191509093A601911101C0289A84FF7E
:1028600018C08091E2008E7E81608093E2008091AA
:10287000E1008F7E8093E1008091A7018E7E8061D0
:102880008093A7019F918F910F900FBE0F901F9083
:10289000189580FFF7CF8091E2008E7E8061809353
:1028A000E2008091E1008E7E8093E1008091A7019B
:1028B0008E7E8160E5CF1F920F920FB60F9211248A
:1028C000CF92DF92EF92FF920F931F932F933F933C
:1028D0004F935F936F937F938F939F93AF93BF9328
:1028E000EF93FF93CF93DF93CDB7DEB76C97DEBF47
:1028F000CDBF1092E9008091E80083FF25C068E019
:10290000CE0145960E942C0282EF8093E8008D89CB
:1029100087FF39C09091E80090FFFCCF982F907608
:1029200009F034C19E894F89588D2F89F88C9111F7
:1029300031C0803861F58091A8018093F100109238
:10294000F1008EEF8093E8006C960FB6F894DEBF2E
:102950000FBECDBFDF91CF91FF91EF91BF91AF91AE
:102960009F918F917F916F915F914F913F912F91A7
:102970001F910F91FF90EF90DF90CF900F900FBEBF
:102980000F901F9018959EEF9093E800C7CF10927C
:10299000F100D5CF913059F48111D3CF4130510599
:1029A00081F68091A8018D7F8093A801CACF9330D2
:1029B00049F48111C6CF4130510519F68091A80123
:1029C0008260F2CF953041F48091E80080FFFCCF27
:1029D00020682093E300B5CF963009F0A9C00B8D95
:1029E0001C8D22E01092E900109294011092930144
:1029F000F2122EC010929201109291010E94FB01DE
:102A00001F8299E09983FA8291E09E8390EA9887E9
:102A10009AEF99872091930130919401275F3F4F5E
:102A20003C832B838D831092E900109294011092C5
:102A30009301109392010093910149E050E0BE018F
:102A40006F5F7F4F80E00E94D5010E94FB0179CF2C
:102A500010939201009391010E946001DC01129693
:102A60000D911C910115110509F451C1D801ED9189
:102A7000FC910480F581E02DBE016B5E7F4FC801A3
:102A80000995009709F03EC1F80100851185EACF4C
:102A9000F3E0FF120EC08F89882309F440C0823012
:102AA00061F440E862E18BE291E00E94A2018111B1
:102AB00048CF81E28093EB0047CF813029F440E892
:102AC00068E082E291E0F1CF833099F70E946001E3
:102AD000DC011296ED90FC908E010F5F1F4F680194
:102AE000E114F10479F0D701ED91FC910680F781B2
:102AF000E02DB801C7010995080F111DF701E08409
:102B0000F184EECFD8011C92F60101900020E9F784
:102B10003197BF016C197D0940E0C601C6CF6CE05A
:102B200071E0FB01449150E080E80E94D50109CF9B
:102B3000973009F4BECF983021F481E08093F10002
:102B400000CF993009F0FDCE837009F0B2CFE7E1F4
:102B5000F1E081E031E096E32191222371F080934E
:102B6000E9003093EB00DF0111972C912093EC00EA
:102B70009093ED008F5F873079F78EE78093EA00BE
:102B80001092EA008F898093A901DBCE8B8D9C8DFA
:102B90001092E90010929401109293019093920187
:102BA00080939101898D811192C08E899D89913A7E
:102BB00049F4813209F07DCF47E050E064E071E0F4
:102BC00080E0B3CF913209F074CF833269F48F89FA
:102BD000988DB0E0A0E08093000190930101A09354
:102BE0000201B0930301ADCE803269F48091E80018
:102BF00082FFFCCF67E084E091E00E942C028BEF23
:102C00008093E8009ECE823209F09BCE8F8980931C
:102C10000B01EEEFFFE7859194918B3F9C4D51F1B5
:102C2000E0E0F8E08091040190910501A091060197
:102C3000B0910701803B9440A105B105F1F480916A
:102C40000B0180FD1AC0EE3F8AE0F80789F587E79F
:102C500097E791838083809160008093950188E15C
:102C60009BE00FB6F894A895809360000FBE9093F8
:102C7000600067CEEEEFFAE0D5CF80819181873793
:102C8000974709F05ECEA895809160008861809397
:102C900060008091950180936000EE3F2AE0F2078A
:102CA00089F08091FE0A9091FF0A9183808349CE3A
:102CB000808191818737980751F29093FF0A809322
:102CC000FE0AC5CF1092FF0A1092FE0A3ACE0E9469
:102CD0006001DC0112960D911C910115110509F49A
:102CE000E8CED801ED91FC910190F081E02DBE017C
:102CF0006B5E7F4FC8010995811123CEF8010085D5
:102D00001185EBCF181619060CF41BCED2CEF1E0CC
:102D1000FF12BECE60E171E004CF1F920F920FB69A
:102D20000F9211242F933F938F939F93AF93BF9351
:102D30008091890190918A01A0918B01B0918C01C1
:102D40003091880126E0230F2D3758F50296A11DFA
:102D5000B11D209388018093890190938A01A093EB
:102D60008B01B0938C0180918D0190918E01A09187
:102D70008F01B09190010196A11DB11D80938D012D
:102D800090938E01A0938F01B0939001BF91AF916A
:102D90009F918F913F912F910F900FBE0F901F9099
:102DA000189529E8230F0396A11DB11DD2CF1F92BC
:102DB0000F920FB60F9211248F930FB6F894A89527
:102DC00080916000886180936000109260000FBE67
:102DD0008F910F900FBE0F901F901895FF920F9339
:102DE0001F93CF93DF93CDB7DEB76E970FB6F894EE
:102DF000DEBF0FBECDBFEDEAF3E01382128288EE94
:102E000093E0A0E0B0E084839583A683B78383E357
:102E100091E0918380838FEF9FEF95878487EDEF1B
:102E2000F3E080E5808381E08183EFEFF3E01582BA
:102E300016821186138642E050E060E070E044871D
:102E400055876687778713A215A614A625E431E077
:102E500033A722A717A6E8E4F4E09CE590838183DA
:102E600000E514E0F80111821282138214821582A7
:102E700016821782108660E0CE0149960E94711278
:102E8000F8016681862F82958F709AE0F92E6F7017
:102E90008F9D600D1124CE0143960E947112F8019E
:102EA0006481862F82958F706F708F9D600D1124C5
:102EB000CE010D960E947112F8016381862F8295D2
:102EC0008F706F708F9D600D1124CE0107960E9448
:102ED00071121A8219821C821B821E821D8244E09A
:102EE00050E06FE471E0CE0101960E945012BE01E5
:102EF000695F7F4FCE0101960E943D1264E571E04B
:102F00000E942712BE01635F7F4F0E943D1264E55D
:102F100071E00E942712BE016D5E7F4F0E943D123C
:102F200064E571E00E942712BE01675E7F4F0E9438
:102F30003D1266E571E00E942712BC018AE494E02C
:102F40000E94AA12CE0101960E94C911CE010796D5
:102F50000E94C911CE010D960E94C911CE0143965F
:102F60000E94C911CE0149960E94C9116E960FB6F2
:102F7000F894DEBF0FBECDBFDF91CF911F910F91AF
:102F8000FF900895CF93DF93CDB7DEB7CE54D1092C
:102F90000FB6F894DEBF0FBECDBF789484B58260C3
:102FA00084BD84B5816084BD85B5826085BD85B5ED
:102FB000816085BD80916E00816080936E0010926B
:102FC00081008091810082608093810080918100E6
:102FD0008160809381008091800081608093800077
:102FE0008091910082608093910080919100816036
:102FF00080939100809190008160809390008091F7
:10300000C10084608093C1008091C1008260809380
:10301000C1008091C10081608093C1008091C30094
:1030200081608093C3008091C00082608093C00063
:103030008091C20081608093C20080917A00846098
:1030400080937A0080917A00826080937A008091E8
:103050007A008E7F80937A0080917A0080688093D6
:103060007A000E94AF038AE08093500481E10E94BD
:103070000601809150040E94060161E08091500495
:103080000E94E7020E94EF0F8FEF9FEF9093BA0329
:103090008093B90380912E04882321F089E294E083
:1030A0000E94090E10920A0410920804109205045E
:1030B0001092040481E1809303040E9467047B0161
:1030C000809103040E94060161E0809103040E9444
:1030D000E7020E94EF0F82E58093FD0381E0809379
:1030E000FE038091FD039091FE030E943A051AE0D1
:1030F0008FEF0E9415051150D9F78FEF93E00E94D2
:103100005C0520E030E0A90160E08FEF93E00E94D1
:103110007205182F80930904813009F46AC20E9455
:1031200067046E197F09613D774058F381E0809311
:1031300004048FEF93E00E940A0560914A047091A5
:103140004B04CE0101960E94F9126BE571E0CE01AD
:1031500001960E94CB1062E771E0CE0101960E94B9
:10316000CB108A8D9B8D009731F00E94090E8A8DBD
:103170009B8D0E94041E1E01A8E02A0E311C31E224
:10318000832E31E0932E4AE0442E512C612C712C79
:1031900050E0A52E50E0B52E1AE08091D800806254
:1031A0008093D80089B58D7F89BD8091D8008F77B5
:1031B0008093D80030E020E050E040E069E070E02B
:1031C00089E991E00E9422100E94AF035D9864E6B5
:1031D00070E080E090E00E947D03EEE3F1E08491F6
:1031E00020917B00982F990F990F90722F7D922B31
:1031F00090937B008770806480937C0080917A003C
:10320000806480937A0080917A0086FDFCCF809163
:10321000780090917900BC01660F771F680F791FC5
:10322000072E000C880B990B0E94C01B23E732EA83
:1032300049E85FE30E94FB1B0E940A1D70939801FE
:103240006093970180914804909149040E943A0547
:1032500060E0809150040E94E70280E00E94150522
:10326000CE0101966C017C0180E00E941505F701FA
:1032700081937F01E215F305B9F761E08091500475
:103280000E94E702E1E5F4E0D6018D916D018193A2
:10329000EA16FB06C9F78091530486FF29C285FF11
:1032A00024C291E0909358048F71809353046091ED
:1032B0004A0470914B04CE0182960E94F9128CA1AF
:1032C0009DA19C838B838EA19FA1A8A5B9A58D8369
:1032D0009E83AF83B8878AA59BA5ACA5BDA589872A
:1032E0009A87AB87BC879A8289828DE0FE01BE9661
:1032F000DE011D9601900D928A95E1F78BAD9CAD94
:103300009B8F8A8F60915504862F82958F706F7086
:10331000819F600D1124CE01CD960E9471126091A3
:103320005604862F82958F706F70819F600D1124D7
:10333000CE01875B9F4F0E947112BE01675B7F4F7A
:10334000CE018D5B9F4F0E94AA126DE471E0CE0109
:103350008D5B9F4F0E942712BE01635C7F4F0E94CE
:103360003D126DE471E00E942712BC01CE0101966E
:103370000E94E80FCE018D5B9F4F0E94C911CE01C4
:10338000875B9F4F0E94C911CE01CD960E94C91143
:1033900060915704862F82958F706F70819F600DAA
:1033A0001124CE018D5B9F4F0E947112BE016D5B97
:1033B0007F4FCE01CD960E94AA1265E771E0CE0143
:1033C000CD960E942712BC01CE0101960E94E80F03
:1033D000CE01CD960E94C911CE018D5B9F4F0E94F8
:1033E000C91160915304862F82958F706F70819FF1
:1033F000600D1124CE018D5B9F4F0E947112BE01A2
:103400006D5B7F4FCE01CD960E94AA1267E771E0F7
:10341000CE01CD960E942712BC01CE0101960E94DA
:10342000E80FCE01CD960E94C911CE018D5B9F4F52
:103430000E94C91180915204982F92959F708F70AD
:10344000919F800D11248A3028F460E3CE0101960B
:103450000E94F30460915204862F82958F706F70E2
:10346000819F600D1124CE018D5B9F4F0E947112D0
:10347000BE016D5B7F4FCE01CD960E94AA1267E719
:1034800071E0CE01CD960E942712BC01CE010196BB
:103490000E94E80FCE01CD960E94C911CE018D5B2E
:1034A0009F4F0E94C91180915104982F92959F704F
:1034B0008F70919F800D11248A3028F460E3CE0133
:1034C00001960E94F30460915104862F82958F70BB
:1034D0006F70819F600D1124CE018D5B9F4F0E9404
:1034E0007112BE016D5B7F4FCE01CD960E94AA1274
:1034F0008CE22A968FAF2A972B961FAE2B9741E02E
:1035000050E0BE01675B7F4FCE01CD960E94FB115C
:10351000811104C0CE01CD960E94B711BE01635C3B
:103520007F4FCE0101960E94E80FCE01CD960E94FA
:10353000C911CE018D5B9F4F0E94C9110E943D05AC
:1035400086FF0CC00E943D0569E771E085FD02C061
:103550006DE771E0CE0101960E94CB10C0909701FB
:10356000D09098010D2C000CEE08FF08F7FEC2C0A9
:103570006DE2CE0182960E94F30422273327A9012F
:103580002C193D094E095F0919A2FE01B1967F0170
:10359000CA01B901A30192010E94401D605DD701DB
:1035A0006E937D01211531054105510589F7E1141F
:1035B000F10429F0B701CE0182960E94CB1062E798
:1035C00071E0CE0182960E94CB108BAD9CAD00972E
:1035D00041F00E94090E8BAD9CAD0E94041E1CAEF2
:1035E0001BAE5D9AA114B10409F4D7CD0E9400006E
:1035F000D3CD2AEA31E040E050E068E08FEF93E07D
:103600000E94720582FF2AC010930A0480910A0466
:10361000812C912C5401823029F4812C912CA12CE5
:1036200060E4B62E20E030E0A90167E38FEF93E07D
:103630000E947205A501940169E28FEF93E00E9458
:103640007205809309048823C1F00E9467046E19F3
:103650007F09613D774030F388E069CD14E00E9436
:103660001C05809309041150D1F78A3A11F082E0C9
:103670005ECD82E080930A04C9CF80910A04823033
:10368000D1F420E030E0A9016AE38FEF93E00E94DB
:103690007205882311F086E04ACD0E941C05807CCB
:1036A000803C19F483E080930A040E941C050E9468
:1036B0001C050E941C058FEF93E00E940A0580E51F
:1036C0008093FD0381E08093FE030E9478078823A6
:1036D00029F089E294E00E942F0A2FCD80E00E9419
:1036E0007807882309F429CDF4CF10925804DCCD53
:1036F0008F73DBCDA701960119A2FE01B1967F0160
:10370000CA01B901A30192010E94401D605DD70169
:103710006E937D01211531054105510589F747CF8C
:103720008AE494E00C94C911BB27FB015527AA2712
:10373000880F991FAA1FA41710F0A41B839550513E
:10374000B9F7A05DAA3308F0A95DA193009779F7B6
:10375000B111B1931192CB010C94AE1BDC01FC01B1
:10376000672F71917723E1F7329704C07C916D93B5
:1037700070836291AE17BF07C8F30895E89409C03B
:1037800097FB3EF490958095709561957F4F8F4F94
:103790009F4F9923A9F0F92F96E9BB279395F695AA
:1037A000879577956795B795F111F8CFFAF4BB0F28
:1037B00011F460FF1BC06F5F7F4F8F4F9F4F16C08C
:1037C000882311F096E911C0772321F09EE8872F16
:1037D000762F05C0662371F096E8862F70E060E0D2
:1037E0002AF09A95660F771F881FDAF7880F96954B
:1037F000879597F908950E940E1C0C947F1C0E94D7
:10380000711C38F00E94781C20F0952311F00C9464
:10381000681C0C946E1C11240C94B31C0E94901C08
:1038200070F3959FC1F3950F50E0551F629FF00113
:10383000729FBB27F00DB11D639FAA27F00DB11D2C
:10384000AA1F649F6627B00DA11D661F829F2227B5
:10385000B00DA11D621F739FB00DA11D621F839F3C
:10386000A00D611D221F749F3327A00D611D231F12
:10387000849F600D211D822F762F6A2F11249F5760
:1038800050409AF0F1F088234AF0EE0FFF1FBB1F63
:10389000661F771F881F91505040A9F79E3F510522
:1038A00080F00C94681C0C94B31C5F3FE4F3983ECA
:1038B000D4F3869577956795B795F795E7959F5FCC
:1038C000C1F7FE2B880F911D9695879597F908955E
:1038D00097F99F6780E870E060E008959FEF80ECC3
:1038E000089500240A941616170618060906089566
:1038F00000240A9412161306140605060895092ECC
:103900000394000C11F4882352F0BB0F40F4BF2B3A
:1039100011F460FF04C06F5F7F4F8F4F9F4F08957A
:1039200057FD9058440F551F59F05F3F71F0479570
:10393000880F97FB991F61F09F3F79F08795089555
:10394000121613061406551FF2CF4695F1DF08C074
:10395000161617061806991FF1CF86957105610591
:1039600008940895E894BB2766277727CB0197F939
:1039700008950E94FB1CA59F900DB49F900DA49FDD
:10398000800D911D112408952F923F924F925F92C6
:103990006F927F928F929F92AF92BF92CF92DF925F
:1039A000EF92FF920F931F93CF93DF93CDB7DEB7C4
:1039B000CA1BDB0B0FB6F894DEBF0FBECDBF099458
:1039C0002A88398848885F846E847D848C849B84AF
:1039D000AA84B984C884DF80EE80FD800C811B81BD
:1039E000AA81B981CE0FD11D0FB6F894DEBF0FBEEC
:1039F000CDBFED010895A29FB001B39FC001A39F69
:103A0000700D811D1124911DB29F700D811D112417
:103A1000911D08950E94111D6894B1110C94B31C5E
:103A200008950E94981C88F09F5798F0B92F992705
:103A3000B751B0F0E1F0660F771F881F991F1AF099
:103A4000BA95C9F714C0B13091F00E94B21CB1E030
:103A500008950C94B21C672F782F8827B85F39F02F
:103A6000B93FCCF3869577956795B395D9F73EF432
:103A700090958095709561957F4F8F4F9F4F0895DA
:103A8000A1E21A2EAA1BBB1BFD010DC0AA1FBB1F62
:103A9000EE1FFF1FA217B307E407F50720F0A21BD4
:103AA000B30BE40BF50B661F771F881F991F1A9441
:103AB00069F760957095809590959B01AC01BD016B
:103AC000CF010895EE0FFF1F0590F491E02D0994AA
:103AD0000F931F93CF93DF938230910510F482E010
:103AE00090E0E0915B04F0915C0430E020E0B0E015
:103AF000A0E0309799F42115310509F44AC0281B3C
:103B0000390B24303105D8F58A819B816115710507
:103B100089F1FB0193838283FE0111C040815181B1
:103B20000281138148175907E0F04817590799F4A3
:103B3000109761F012960C93129713961C9332967D
:103B4000CF01DF91CF911F910F91089500935B04F6
:103B500010935C04F4CF2115310551F0421753073F
:103B600038F0A901DB019A01BD01DF01F801C1CFE5
:103B7000EF01F9CF90935C0480935B04CDCFFE01FD
:103B8000E20FF31F819391932250310939832883E7
:103B9000D7CF2091590430915A04232B41F420911E
:103BA00012013091130130935A042093590420914B
:103BB0001001309111012115310541F42DB73EB7A7
:103BC0004091140150911501241B350BE0915904CB
:103BD000F0915A04E217F307A0F42E1B3F0B2817AD
:103BE000390778F0AC014E5F5F4F2417350748F076
:103BF0004E0F5F1F50935A04409359048193919341
:103C00009FCFF0E0E0E09CCFCF93DF930097E9F007
:103C1000FC01329713821282A0915B04B0915C0484
:103C2000ED0130E020E01097A1F420813181820F76
:103C3000931F2091590430915A042817390709F02D
:103C400061C0F0935A04E0935904DF91CF91089535
:103C5000EA01CE17DF07E8F54A815B819E01411535
:103C60005105B1F7E901FB83EA8349915991C40FEA
:103C7000D51FEC17FD0761F4808191810296840FB6
:103C8000951FE90199838883828193819B838A832D
:103C9000F0E0E0E012968D919C9113970097B9F5B2
:103CA0002D913C911197CD010296820F931F209187
:103CB000590430915A042817390739F6309751F5CD
:103CC00010925C0410925B04B0935A04A0935904C0
:103CD000BCCFD383C28340815181840F951FC81705
:103CE000D90761F44E5F5F4F88819981480F591F52
:103CF000518340838A819B8193838283211531057F
:103D000009F0B0CFF0935C04E0935B049ECFFD011B
:103D1000DC01C0CF13821282D7CFB0E0A0E0E3E98C
:103D2000FEE10C94C61C8C01009751F4CB010E945B
:103D3000681D8C01C801CDB7DEB7E0E10C94E21C30
:103D4000FC01E60FF71F9C0122503109E217F3072F
:103D500008F49DC0D901CD91DC911197C617D70702
:103D600098F0C530D10530F3CE0104978617970738
:103D700008F3C61BD70B2297C193D1936D937C9305
:103D8000CF010E94041ED6CF5B01AC1ABD0A4C01C4
:103D90008C0E9D1EA0915B04B0915C04512C412CB3
:103DA000F12CE12C109731F58091590490915A042F
:103DB0008815990509F05CC04616570608F058C0EA
:103DC0008091100190911101009741F48DB79EB739
:103DD0004091140150911501841B950BE817F907C8
:103DE00008F055C0F0935A04E0935904F901718327
:103DF0006083A0CF8D919C91119712966C90129731
:103E000013967C901397A815B90559F56C0142E0FB
:103E1000C40ED11CCA14DB0420F1AC014A195B09A1
:103E2000DA011296159780F0628273825183408383
:103E3000D9016D937C93E114F10471F0D7011396CD
:103E4000FC93EE93129776CF22968C0F9D1FF9016B
:103E500091838083F301EFCFF0935C04E0935B04E4
:103E600069CF4816590608F42C017D01D3019ACF79
:103E7000CB010E94681D7C01009749F0AE01B8019A
:103E80000E945C1FC8010E94041E870153CF10E0EE
:103E900000E050CF81E090E0F8940C94861FFB0185
:103EA000DC0104C08D910190801921F441505040F3
:103EB000C8F7881B990B0895FB01DC0102C0019033
:103EC0000D9241505040D8F70895FC01819186171A
:103ED00021F08823D9F7992708953197CF010895C4
:103EE000FB01DC0101900D920020E1F70895FB0138
:103EF000DC014150504048F001900D920020C9F77C
:103F000001C01D9241505040E0F7089510E0CBED04
:103F1000D0E004C0FE010E94621D2196CC3DD10775
:063F2000C9F7F894FFCF81
:103F2600FFFFFFFF00E1000000000000FFFFFFFFB2
:103F360000005D04800000C18081000000000000D8
:103F460000F304CB0FE304160EC304370D410D0036
:103F56000000006602E20387027C02CD028B02A902
:103F66000200000000BA0F3902AB0D6B102F00647F
:103F7600617461005F002E7478740054696D657316
:103F860074616D702C20566F6C74616765286D5670
:103F960029000D0A0020003A0020504D0020414D16
:023FA600000019
:00000001FF
